{
  "contractName": "CROWDSALE",
  "abi": [
    {
      "constant": true,
      "inputs": [],
      "name": "presaleValue1",
      "outputs": [
        {
          "name": "",
          "type": "uint256"
        }
      ],
      "payable": false,
      "stateMutability": "view",
      "type": "function"
    },
    {
      "constant": true,
      "inputs": [],
      "name": "name",
      "outputs": [
        {
          "name": "",
          "type": "string"
        }
      ],
      "payable": false,
      "stateMutability": "view",
      "type": "function"
    },
    {
      "constant": false,
      "inputs": [
        {
          "name": "_spender",
          "type": "address"
        },
        {
          "name": "_value",
          "type": "uint256"
        }
      ],
      "name": "approve",
      "outputs": [
        {
          "name": "success",
          "type": "bool"
        }
      ],
      "payable": false,
      "stateMutability": "nonpayable",
      "type": "function"
    },
    {
      "constant": true,
      "inputs": [],
      "name": "totalSupply",
      "outputs": [
        {
          "name": "",
          "type": "uint256"
        }
      ],
      "payable": false,
      "stateMutability": "view",
      "type": "function"
    },
    {
      "constant": false,
      "inputs": [
        {
          "name": "_from",
          "type": "address"
        },
        {
          "name": "_to",
          "type": "address"
        },
        {
          "name": "_value",
          "type": "uint256"
        }
      ],
      "name": "transferFrom",
      "outputs": [
        {
          "name": "success",
          "type": "bool"
        }
      ],
      "payable": false,
      "stateMutability": "nonpayable",
      "type": "function"
    },
    {
      "constant": true,
      "inputs": [],
      "name": "decimals",
      "outputs": [
        {
          "name": "",
          "type": "uint8"
        }
      ],
      "payable": false,
      "stateMutability": "view",
      "type": "function"
    },
    {
      "constant": false,
      "inputs": [],
      "name": "startico",
      "outputs": [],
      "payable": false,
      "stateMutability": "nonpayable",
      "type": "function"
    },
    {
      "constant": true,
      "inputs": [],
      "name": "icoValue",
      "outputs": [
        {
          "name": "",
          "type": "uint256"
        }
      ],
      "payable": false,
      "stateMutability": "view",
      "type": "function"
    },
    {
      "constant": true,
      "inputs": [
        {
          "name": "",
          "type": "address"
        },
        {
          "name": "",
          "type": "address"
        }
      ],
      "name": "allowed",
      "outputs": [
        {
          "name": "",
          "type": "uint256"
        }
      ],
      "payable": false,
      "stateMutability": "view",
      "type": "function"
    },
    {
      "constant": true,
      "inputs": [],
      "name": "presaleValue2",
      "outputs": [
        {
          "name": "",
          "type": "uint256"
        }
      ],
      "payable": false,
      "stateMutability": "view",
      "type": "function"
    },
    {
      "constant": true,
      "inputs": [
        {
          "name": "_owner",
          "type": "address"
        }
      ],
      "name": "balanceOf",
      "outputs": [
        {
          "name": "balance",
          "type": "uint256"
        }
      ],
      "payable": false,
      "stateMutability": "view",
      "type": "function"
    },
    {
      "constant": true,
      "inputs": [],
      "name": "icoData",
      "outputs": [
        {
          "name": "",
          "type": "uint256"
        },
        {
          "name": "",
          "type": "uint256"
        },
        {
          "name": "",
          "type": "uint256"
        }
      ],
      "payable": false,
      "stateMutability": "view",
      "type": "function"
    },
    {
      "constant": true,
      "inputs": [],
      "name": "mintedToken",
      "outputs": [
        {
          "name": "",
          "type": "uint256"
        }
      ],
      "payable": false,
      "stateMutability": "view",
      "type": "function"
    },
    {
      "constant": true,
      "inputs": [],
      "name": "buyPrice",
      "outputs": [
        {
          "name": "",
          "type": "uint256"
        }
      ],
      "payable": false,
      "stateMutability": "view",
      "type": "function"
    },
    {
      "constant": true,
      "inputs": [],
      "name": "owner",
      "outputs": [
        {
          "name": "",
          "type": "address"
        }
      ],
      "payable": false,
      "stateMutability": "view",
      "type": "function"
    },
    {
      "constant": true,
      "inputs": [],
      "name": "softCap",
      "outputs": [
        {
          "name": "",
          "type": "uint256"
        }
      ],
      "payable": false,
      "stateMutability": "view",
      "type": "function"
    },
    {
      "constant": false,
      "inputs": [
        {
          "name": "presale_number",
          "type": "uint8"
        }
      ],
      "name": "startPresale",
      "outputs": [],
      "payable": false,
      "stateMutability": "nonpayable",
      "type": "function"
    },
    {
      "constant": true,
      "inputs": [],
      "name": "symbol",
      "outputs": [
        {
          "name": "",
          "type": "string"
        }
      ],
      "payable": false,
      "stateMutability": "view",
      "type": "function"
    },
    {
      "constant": true,
      "inputs": [],
      "name": "currentSale",
      "outputs": [
        {
          "name": "",
          "type": "uint8"
        }
      ],
      "payable": false,
      "stateMutability": "view",
      "type": "function"
    },
    {
      "constant": false,
      "inputs": [],
      "name": "buy",
      "outputs": [],
      "payable": true,
      "stateMutability": "payable",
      "type": "function"
    },
    {
      "constant": false,
      "inputs": [
        {
          "name": "_to",
          "type": "address"
        },
        {
          "name": "_value",
          "type": "uint256"
        }
      ],
      "name": "transfer",
      "outputs": [
        {
          "name": "success",
          "type": "bool"
        }
      ],
      "payable": false,
      "stateMutability": "nonpayable",
      "type": "function"
    },
    {
      "constant": true,
      "inputs": [
        {
          "name": "_owner",
          "type": "address"
        },
        {
          "name": "_spender",
          "type": "address"
        }
      ],
      "name": "allowance",
      "outputs": [
        {
          "name": "remaining",
          "type": "uint256"
        }
      ],
      "payable": false,
      "stateMutability": "view",
      "type": "function"
    },
    {
      "constant": false,
      "inputs": [
        {
          "name": "presale_number",
          "type": "uint8"
        }
      ],
      "name": "stopPresale",
      "outputs": [],
      "payable": false,
      "stateMutability": "nonpayable",
      "type": "function"
    },
    {
      "constant": true,
      "inputs": [
        {
          "name": "_no",
          "type": "uint8"
        }
      ],
      "name": "presaleData",
      "outputs": [
        {
          "name": "",
          "type": "uint256"
        },
        {
          "name": "",
          "type": "uint256"
        },
        {
          "name": "",
          "type": "uint256"
        },
        {
          "name": "",
          "type": "uint256"
        }
      ],
      "payable": false,
      "stateMutability": "view",
      "type": "function"
    },
    {
      "constant": false,
      "inputs": [
        {
          "name": "newOwner",
          "type": "address"
        }
      ],
      "name": "transferOwnership",
      "outputs": [],
      "payable": false,
      "stateMutability": "nonpayable",
      "type": "function"
    },
    {
      "constant": true,
      "inputs": [],
      "name": "hardCap",
      "outputs": [
        {
          "name": "",
          "type": "uint256"
        }
      ],
      "payable": false,
      "stateMutability": "view",
      "type": "function"
    },
    {
      "anonymous": false,
      "inputs": [
        {
          "indexed": false,
          "name": "from",
          "type": "address"
        },
        {
          "indexed": false,
          "name": "amount",
          "type": "uint256"
        }
      ],
      "name": "LogPayment",
      "type": "event"
    },
    {
      "anonymous": false,
      "inputs": [
        {
          "indexed": true,
          "name": "_owner",
          "type": "address"
        },
        {
          "indexed": true,
          "name": "_spender",
          "type": "address"
        },
        {
          "indexed": false,
          "name": "_value",
          "type": "uint256"
        }
      ],
      "name": "Approval",
      "type": "event"
    },
    {
      "anonymous": false,
      "inputs": [
        {
          "indexed": true,
          "name": "_from",
          "type": "address"
        },
        {
          "indexed": true,
          "name": "_to",
          "type": "address"
        },
        {
          "indexed": false,
          "name": "_value",
          "type": "uint256"
        }
      ],
      "name": "Transfer",
      "type": "event"
    }
  ],
  "bytecode": "0x60606040526008600260006101000a81548160ff021916908360ff160217905550731f829d3202c29789af7aa7ddd728337539974169600760006101000a81548173ffffffffffffffffffffffffffffffffffffffff021916908373ffffffffffffffffffffffffffffffffffffffff16021790555060006008556103e86009556000600b556000600c556000600d556000600e60006101000a81548160ff021916908360ff1602179055506000600e60016101000a81548160ff021916908360ff1602179055506611c37937e08000600f556000601060006101000a81548160ff0219169083151502179055506000601060016101000a81548160ff0219169083151502179055506000601060026101000a81548160ff021916908315150217905550600260009054906101000a900460ff1660ff16600a0a601555600260009054906101000a900460ff1660ff16600a0a6305f5e100026003819055506040805190810160405280600681526020017f72696d756c65000000000000000000000000000000000000000000000000000081525060009080519060200190620001ab92919062000241565b506040805190810160405280600381526020017f52696d000000000000000000000000000000000000000000000000000000000081525060019080519060200190620001f992919062000241565b5033600660006101000a81548173ffffffffffffffffffffffffffffffffffffffff021916908373ffffffffffffffffffffffffffffffffffffffff160217905550620002f0565b828054600181600116156101000203166002900490600052602060002090601f016020900481019282601f106200028457805160ff1916838001178555620002b5565b82800160010185558215620002b5579182015b82811115620002b457825182559160200191906001019062000297565b5b509050620002c49190620002c8565b5090565b620002ed91905b80821115620002e9576000816000905550600101620002cf565b5090565b90565b6122d780620003006000396000f300606060405260043610610154576000357c0100000000000000000000000000000000000000000000000000000000900463ffffffff1680630520445f1461015957806306fdde0314610182578063095ea7b31461021057806318160ddd1461026a57806323b872dd14610293578063313ce5671461030c5780633f82b8641461033b5780635c51484c146103505780635c658165146103795780636b86ac85146103e557806370a082311461040e5780637886031e1461045b5780638542925a146104925780638620410b146104bb5780638da5cb5b146104e4578063906a26e01461053957806394c606f51461056257806395d89b4114610588578063a05d03fd14610616578063a6f2ae3a14610645578063a9059cbb1461064f578063dd62ed3e146106a9578063de0c4e7f14610715578063f25282bd1461073b578063f2fde38b1461078a578063fb86a404146107c3575b600080fd5b341561016457600080fd5b61016c6107ec565b6040518082815260200191505060405180910390f35b341561018d57600080fd5b6101956107f2565b6040518080602001828103825283818151815260200191508051906020019080838360005b838110156101d55780820151818401526020810190506101ba565b50505050905090810190601f1680156102025780820380516001836020036101000a031916815260200191505b509250505060405180910390f35b341561021b57600080fd5b610250600480803573ffffffffffffffffffffffffffffffffffffffff16906020019091908035906020019091905050610890565b604051808215151515815260200191505060405180910390f35b341561027557600080fd5b61027d610982565b6040518082815260200191505060405180910390f35b341561029e57600080fd5b6102f2600480803573ffffffffffffffffffffffffffffffffffffffff1690602001909190803573ffffffffffffffffffffffffffffffffffffffff16906020019091908035906020019091905050610988565b604051808215151515815260200191505060405180910390f35b341561031757600080fd5b61031f610bf8565b604051808260ff1660ff16815260200191505060405180910390f35b341561034657600080fd5b61034e610c0b565b005b341561035b57600080fd5b610363610d44565b6040518082815260200191505060405180910390f35b341561038457600080fd5b6103cf600480803573ffffffffffffffffffffffffffffffffffffffff1690602001909190803573ffffffffffffffffffffffffffffffffffffffff16906020019091905050610d4a565b6040518082815260200191505060405180910390f35b34156103f057600080fd5b6103f8610d6f565b6040518082815260200191505060405180910390f35b341561041957600080fd5b610445600480803573ffffffffffffffffffffffffffffffffffffffff16906020019091905050610d75565b6040518082815260200191505060405180910390f35b341561046657600080fd5b61046e610dbe565b60405180848152602001838152602001828152602001935050505060405180910390f35b341561049d57600080fd5b6104a5610dd7565b6040518082815260200191505060405180910390f35b34156104c657600080fd5b6104ce610ddd565b6040518082815260200191505060405180910390f35b34156104ef57600080fd5b6104f7610de3565b604051808273ffffffffffffffffffffffffffffffffffffffff1673ffffffffffffffffffffffffffffffffffffffff16815260200191505060405180910390f35b341561054457600080fd5b61054c610e09565b6040518082815260200191505060405180910390f35b341561056d57600080fd5b610586600480803560ff16906020019091905050610e0f565b005b341561059357600080fd5b61059b610fcc565b6040518080602001828103825283818151815260200191508051906020019080838360005b838110156105db5780820151818401526020810190506105c0565b50505050905090810190601f1680156106085780820380516001836020036101000a031916815260200191505b509250505060405180910390f35b341561062157600080fd5b61062961106a565b604051808260ff1660ff16815260200191505060405180910390f35b61064d6110df565b005b341561065a57600080fd5b61068f600480803573ffffffffffffffffffffffffffffffffffffffff1690602001909190803590602001909190505061123f565b604051808215151515815260200191505060405180910390f35b34156106b457600080fd5b6106ff600480803573ffffffffffffffffffffffffffffffffffffffff1690602001909190803573ffffffffffffffffffffffffffffffffffffffff1690602001909190505061139c565b6040518082815260200191505060405180910390f35b341561072057600080fd5b610739600480803560ff16906020019091905050611423565b005b341561074657600080fd5b61075f600480803560ff16906020019091905050611606565b6040518085815260200184815260200183815260200182815260200194505050505060405180910390f35b341561079557600080fd5b6107c1600480803573ffffffffffffffffffffffffffffffffffffffff1690602001909190505061165e565b005b34156107ce57600080fd5b6107d66116fe565b6040518082815260200191505060405180910390f35b600b5481565b60008054600181600116156101000203166002900480601f0160208091040260200160405190810160405280929190818152602001828054600181600116156101000203166002900480156108885780601f1061085d57610100808354040283529160200191610888565b820191906000526020600020905b81548152906001019060200180831161086b57829003601f168201915b505050505081565b600081600560003373ffffffffffffffffffffffffffffffffffffffff1673ffffffffffffffffffffffffffffffffffffffff16815260200190815260200160002060008573ffffffffffffffffffffffffffffffffffffffff1673ffffffffffffffffffffffffffffffffffffffff168152602001908152602001600020819055508273ffffffffffffffffffffffffffffffffffffffff163373ffffffffffffffffffffffffffffffffffffffff167f8c5be1e5ebec7d5bd14f71427d1e84f3dd0314c0f7b2291e5b200ac8c7c3b925846040518082815260200191505060405180910390a36001905092915050565b60035481565b600081600460008673ffffffffffffffffffffffffffffffffffffffff1673ffffffffffffffffffffffffffffffffffffffff1681526020019081526020016000205410158015610a55575081600560008673ffffffffffffffffffffffffffffffffffffffff1673ffffffffffffffffffffffffffffffffffffffff16815260200190815260200160002060003373ffffffffffffffffffffffffffffffffffffffff1673ffffffffffffffffffffffffffffffffffffffff1681526020019081526020016000205410155b15610bec5781600460008573ffffffffffffffffffffffffffffffffffffffff1673ffffffffffffffffffffffffffffffffffffffff1681526020019081526020016000206000828254019250508190555081600460008673ffffffffffffffffffffffffffffffffffffffff1673ffffffffffffffffffffffffffffffffffffffff1681526020019081526020016000206000828254039250508190555081600560008673ffffffffffffffffffffffffffffffffffffffff1673ffffffffffffffffffffffffffffffffffffffff16815260200190815260200160002060003373ffffffffffffffffffffffffffffffffffffffff1673ffffffffffffffffffffffffffffffffffffffff168152602001908152602001600020600082825403925050819055508273ffffffffffffffffffffffffffffffffffffffff168473ffffffffffffffffffffffffffffffffffffffff167fddf252ad1be2c89b69c2b068fc378daa952ba7f163c4a11628f55a4df523b3ef846040518082815260200191505060405180910390a360019050610bf1565b600090505b9392505050565b600260009054906101000a900460ff1681565b600660009054906101000a900473ffffffffffffffffffffffffffffffffffffffff1673ffffffffffffffffffffffffffffffffffffffff163373ffffffffffffffffffffffffffffffffffffffff1614158015610cb75750600760009054906101000a900473ffffffffffffffffffffffffffffffffffffffff1673ffffffffffffffffffffffffffffffffffffffff163373ffffffffffffffffffffffffffffffffffffffff1614155b15610cc157600080fd5b60011515601060009054906101000a900460ff1615151480610cf6575060011515601060019054906101000a900460ff161515145b80610d1357506000600e60009054906101000a900460ff1660ff16145b15610d1d57600080fd5b6001601060026101000a81548160ff021916908315150217905550610d426002611704565b565b600d5481565b6005602052816000526040600020602052806000526040600020600091509150505481565b600c5481565b6000600460008373ffffffffffffffffffffffffffffffffffffffff1673ffffffffffffffffffffffffffffffffffffffff168152602001908152602001600020549050919050565b6000806000600d54600854600a54925092509250909192565b60085481565b600f5481565b600660009054906101000a900473ffffffffffffffffffffffffffffffffffffffff1681565b60095481565b600660009054906101000a900473ffffffffffffffffffffffffffffffffffffffff1673ffffffffffffffffffffffffffffffffffffffff163373ffffffffffffffffffffffffffffffffffffffff1614158015610ebb5750600760009054906101000a900473ffffffffffffffffffffffffffffffffffffffff1673ffffffffffffffffffffffffffffffffffffffff163373ffffffffffffffffffffffffffffffffffffffff1614155b15610ec557600080fd5b60018160ff16148015610eea57506000600e60009054906101000a900460ff1660ff16145b15610f35576001601060006101000a81548160ff0219169083151502179055506001600e60006101000a81548160ff021916908360ff160217905550610f306001611704565b610fc9565b60028160ff16148015610f5a57506000600e60019054906101000a900460ff1660ff16145b8015610f7857506002600e60009054906101000a900460ff1660ff16145b15610fc3576001601060016101000a81548160ff0219169083151502179055506001600e60016101000a81548160ff021916908360ff160217905550610fbe6001611704565b610fc8565b600080fd5b5b50565b60018054600181600116156101000203166002900480601f0160208091040260200160405190810160405280929190818152602001828054600181600116156101000203166002900480156110625780601f1061103757610100808354040283529160200191611062565b820191906000526020600020905b81548152906001019060200180831161104557829003601f168201915b505050505081565b600060011515601060009054906101000a900460ff161515141561109157600190506110dc565b60011515601060019054906101000a900460ff16151514156110b657600290506110dc565b60011515601060029054906101000a900460ff16151514156110db57600390506110dc565b5b90565b60001515601060009054906101000a900460ff161515148015611115575060001515601060019054906101000a900460ff161515145b8015611134575060001515601060029054906101000a900460ff161515145b1561113e57600080fd5b6702c68af0bb14000034101561115357600080fd5b7f27a391d95d67e3626574fb5fbe3532bb7366e9254957b1f0e840953c248b2aa83334604051808373ffffffffffffffffffffffffffffffffffffffff1673ffffffffffffffffffffffffffffffffffffffff1681526020018281526020019250505060405180910390a160011515601060009054906101000a900460ff16151514156111e9576111e433346117b1565b61123d565b60011515601060019054906101000a900460ff16151514156112145761120f3334611a1a565b61123c565b60011515601060029054906101000a900460ff161515141561123b5761123a3334611c83565b5b5b5b565b600081600460003373ffffffffffffffffffffffffffffffffffffffff1673ffffffffffffffffffffffffffffffffffffffff168152602001908152602001600020541015156113915781600460003373ffffffffffffffffffffffffffffffffffffffff1673ffffffffffffffffffffffffffffffffffffffff1681526020019081526020016000206000828254039250508190555081600460008573ffffffffffffffffffffffffffffffffffffffff1673ffffffffffffffffffffffffffffffffffffffff168152602001908152602001600020600082825401925050819055508273ffffffffffffffffffffffffffffffffffffffff163373ffffffffffffffffffffffffffffffffffffffff167fddf252ad1be2c89b69c2b068fc378daa952ba7f163c4a11628f55a4df523b3ef846040518082815260200191505060405180910390a360019050611396565b600090505b92915050565b6000600560008473ffffffffffffffffffffffffffffffffffffffff1673ffffffffffffffffffffffffffffffffffffffff16815260200190815260200160002060008373ffffffffffffffffffffffffffffffffffffffff1673ffffffffffffffffffffffffffffffffffffffff16815260200190815260200160002054905092915050565b600660009054906101000a900473ffffffffffffffffffffffffffffffffffffffff1673ffffffffffffffffffffffffffffffffffffffff163373ffffffffffffffffffffffffffffffffffffffff16141580156114cf5750600760009054906101000a900473ffffffffffffffffffffffffffffffffffffffff1673ffffffffffffffffffffffffffffffffffffffff163373ffffffffffffffffffffffffffffffffffffffff1614155b156114d957600080fd5b60018160ff161480156114fe57506001600e60009054906101000a900460ff1660ff16145b1561156b576000601060006101000a81548160ff0219169083151502179055506002600e60006101000a81548160ff021916908360ff160217905550600954600b541015611555576115506004611dc8565b611566565b61155d6120f7565b6115656121aa565b5b611603565b60028160ff1614801561159057506001600e60019054906101000a900460ff1660ff16145b156115fd576000601060016101000a81548160ff0219169083151502179055506002600e60016101000a81548160ff021916908360ff160217905550600954600c5410156115e7576115e26003611dc8565b6115f8565b6115ef6120f7565b6115f76121aa565b5b611602565b600080fd5b5b50565b60008060008060018560ff16141561163157600b54600854600954600a549350935093509350611657565b60028560ff16141561165657600c54600854600954600a549350935093509350611657565b5b9193509193565b600760009054906101000a900473ffffffffffffffffffffffffffffffffffffffff1673ffffffffffffffffffffffffffffffffffffffff163373ffffffffffffffffffffffffffffffffffffffff161415156116ba57600080fd5b80600660006101000a81548173ffffffffffffffffffffffffffffffffffffffff021916908373ffffffffffffffffffffffffffffffffffffffff16021790555050565b600a5481565b60018160ff16141561175a57600260009054906101000a900460ff1660ff16600a0a6298968002600860008282540192505081905550600854600360008282540392505081905550600854600a819055506117ae565b60028160ff1614156117ad57600260009054906101000a900460ff1660ff16600a0a6301c9c38002600860008282540192505081905550600854600360008282540392505081905550600854600a819055505b5b50565b6015546004600f54838115156117c357fe5b04020260128190555060125460085410156117dd57600080fd5b600a6012548115156117eb57fe5b0460125401600b60008282540192505081905550601254600460008473ffffffffffffffffffffffffffffffffffffffff1673ffffffffffffffffffffffffffffffffffffffff1681526020019081526020016000206000828254019250508190555080601460008473ffffffffffffffffffffffffffffffffffffffff1673ffffffffffffffffffffffffffffffffffffffff16815260200190815260200160002060008282540192505081905550600a6012548115156118a957fe5b0460046000600660009054906101000a900473ffffffffffffffffffffffffffffffffffffffff1673ffffffffffffffffffffffffffffffffffffffff1673ffffffffffffffffffffffffffffffffffffffff16815260200190815260200160002060008282540192505081905550600a60125481151561192657fe5b04601254016008600082825403925050819055506013805480600101828161194e919061222e565b9160005260206000209001600084909190916101000a81548173ffffffffffffffffffffffffffffffffffffffff021916908373ffffffffffffffffffffffffffffffffffffffff16021790555050600a5460155461032002600b5401101515611a16576000601060006101000a81548160ff0219169083151502179055506002600e60006101000a81548160ff021916908360ff160217905550600954600b541015611a04576119ff6004611dc8565b611a15565b611a0c6120f7565b611a146121aa565b5b5b5050565b6015546003600f5483811515611a2c57fe5b0402026012819055506012546008541015611a4657600080fd5b600a601254811515611a5457fe5b0460125401600c60008282540192505081905550601254600460008473ffffffffffffffffffffffffffffffffffffffff1673ffffffffffffffffffffffffffffffffffffffff1681526020019081526020016000206000828254019250508190555080601460008473ffffffffffffffffffffffffffffffffffffffff1673ffffffffffffffffffffffffffffffffffffffff16815260200190815260200160002060008282540192505081905550600a601254811515611b1257fe5b0460046000600660009054906101000a900473ffffffffffffffffffffffffffffffffffffffff1673ffffffffffffffffffffffffffffffffffffffff1673ffffffffffffffffffffffffffffffffffffffff16815260200190815260200160002060008282540192505081905550600a601254811515611b8f57fe5b046012540160086000828254039250508190555060138054806001018281611bb7919061222e565b9160005260206000209001600084909190916101000a81548173ffffffffffffffffffffffffffffffffffffffff021916908373ffffffffffffffffffffffffffffffffffffffff16021790555050600a5460155461032002600c5401101515611c7f576000601060016101000a81548160ff0219169083151502179055506002600e60016101000a81548160ff021916908360ff160217905550600954600c541015611c6d57611c686003611dc8565b611c7e565b611c756120f7565b611c7d6121aa565b5b5b5050565b601554600f5482811515611c9357fe5b04026012819055506012546008541015611cac57600080fd5b601254600460008473ffffffffffffffffffffffffffffffffffffffff1673ffffffffffffffffffffffffffffffffffffffff16815260200190815260200160002060008282540192505081905550600a601254811515611d0957fe5b0460046000600660009054906101000a900473ffffffffffffffffffffffffffffffffffffffff1673ffffffffffffffffffffffffffffffffffffffff1673ffffffffffffffffffffffffffffffffffffffff16815260200190815260200160002060008282540192505081905550600a601254811515611d8657fe5b0460125401600860008282540392505081905550600a601254811515611da857fe5b0460125401600d60008282540192505081905550611dc46121aa565b5050565b600080600090505b6013805490508110156120e2576014600060136000815481101515611df157fe5b906000526020600020900160009054906101000a900473ffffffffffffffffffffffffffffffffffffffff1673ffffffffffffffffffffffffffffffffffffffff1673ffffffffffffffffffffffffffffffffffffffff1681526020019081526020016000205491506000821415156120d55760006014600060136000815481101515611e7a57fe5b906000526020600020900160009054906101000a900473ffffffffffffffffffffffffffffffffffffffff1673ffffffffffffffffffffffffffffffffffffffff1673ffffffffffffffffffffffffffffffffffffffff1681526020019081526020016000208190555060136000815481101515611ef457fe5b906000526020600020900160009054906101000a900473ffffffffffffffffffffffffffffffffffffffff1673ffffffffffffffffffffffffffffffffffffffff166108fc839081150290604051600060405180830381858888f193505050501515611f5f57600080fd5b6015548360ff16600f5484811515611f7357fe5b0402026004600060136000815481101515611f8a57fe5b906000526020600020900160009054906101000a900473ffffffffffffffffffffffffffffffffffffffff1673ffffffffffffffffffffffffffffffffffffffff1673ffffffffffffffffffffffffffffffffffffffff16815260200190815260200160002060008282540392505081905550601554600a8460ff16600f548581151561201357fe5b040281151561201e57fe5b040260046000600660009054906101000a900473ffffffffffffffffffffffffffffffffffffffff1673ffffffffffffffffffffffffffffffffffffffff1673ffffffffffffffffffffffffffffffffffffffff16815260200190815260200160002060008282540392505081905550601554600a8460ff16600f54858115156120a457fe5b04028115156120af57fe5b048460ff16600f54858115156120c157fe5b040201026008600082825401925050819055505b8080600101915050611dd0565b60006013816120f1919061225a565b50505050565b60008090505b601380549050811015612197576000601460006013600081548110151561212057fe5b906000526020600020900160009054906101000a900473ffffffffffffffffffffffffffffffffffffffff1673ffffffffffffffffffffffffffffffffffffffff1673ffffffffffffffffffffffffffffffffffffffff1681526020019081526020016000208190555080806001019150506120fd565b60006013816121a6919061225a565b5050565b3073ffffffffffffffffffffffffffffffffffffffff1631601181905550600660009054906101000a900473ffffffffffffffffffffffffffffffffffffffff1673ffffffffffffffffffffffffffffffffffffffff166108fc6011549081150290604051600060405180830381858888f19350505050151561222c57600080fd5b565b815481835581811511612255578183600052602060002091820191016122549190612286565b5b505050565b815481835581811511612281578183600052602060002091820191016122809190612286565b5b505050565b6122a891905b808211156122a457600081600090555060010161228c565b5090565b905600a165627a7a7230582020c2d544aae15fc81e3a0720f2ca2e0b4e525898bcda7b194a75ba1bc141075c0029",
  "source": "pragma solidity ^ 0.4 .4;\n\n\nimport './presale1.sol';\nimport './presale2.sol';\nimport './ico.sol';\n\ncontract CROWDSALE is presale1, presale2, Ico {\n  //events for log\n  event LogPayment(address from, uint256 amount);\n\n  /*\n     function to start presale\n     presale starts in order 1,2\n  */\n  function startPresale(uint8 presale_number) onlyOwner {\n\n    if (presale_number == 1 && flagPresale1 == 0) {\n      isPresale1 = true;\n      flagPresale1 = 1;\n      mintToken(1);\n    } else if (presale_number == 2 && flagPresale2 == 0 && flagPresale1 == 2) {\n      isPresale2 = true;\n      flagPresale2 = 1;\n      mintToken(1);\n    } else revert();\n  }\n\n  /**\n   * function to stop presale\n   * once sale ended softcap is checked\n   * if presalevalue reached softCap\n   * rollback() is called\n   * otherwise ether is transfered to Owner\n   **/\n  function stopPresale(uint8 presale_number) onlyOwner {\n    if (presale_number == 1 && flagPresale1 == 1) {\n      isPresale1 = false;\n      flagPresale1 = 2;\n      if (presaleValue1 < softCap) {\n        rollBackPresale(4); //return ether to user\n      } else {\n        destroy(); //destroy presale1 values\n        withdraw(); //transfer ether to owner\n      }\n    } else if (presale_number == 2 && flagPresale2 == 1) {\n      isPresale2 = false;\n      flagPresale2 = 2;\n      if (presaleValue2 < softCap) {\n        rollBackPresale(3);\n      } else {\n        destroy();\n        withdraw();\n      }\n    } else revert();\n  }\n\n  function startico() onlyOwner {\n    if (isPresale1 == true || isPresale2 == true || flagPresale1 == 0) revert(); //start after presale\n    isIco = true;\n    mintToken(2);\n  }\n\n\n  function buy() payable {\n    if (isPresale1 == false && isPresale2 == false && isIco == false) revert(); //check if sale is true\nif(msg.value <0.2 ether) revert();\n    LogPayment(msg.sender, msg.value);\n\n    if (isPresale1 == true) {\n      presale_1(msg.sender, msg.value);\n    } else if (isPresale2 == true) {\n      presale_2(msg.sender, msg.value);\n    } else if (isIco == true) {\n      ico(msg.sender, msg.value);\n    }\n  }\n\n  //accessory functions\n  function presaleData(uint8 _no) public constant returns(uint256, uint256, uint256, uint256) {\n    if (_no == 1) {\n\n      return (presaleValue1, mintedToken, softCap, hardCap);\n    } else if (_no == 2) {\n      return (presaleValue2, mintedToken, softCap, hardCap);\n    }\n  }\n\n  function icoData() public constant returns(uint256, uint256, uint256) {\n    return (icoValue, mintedToken, hardCap);\n  }\n\n  function currentSale() public constant returns(uint8) {\n    if (isPresale1 == true)\n      return (1);\n    else if (isPresale2 == true)\n      return (2);\n    else if (isIco == true)\n      return (3);\n  }\n}\n",
  "sourcePath": "C:\\Users\\Armstrong\\Documents\\GitHub\\test\\contracts\\CROWDSALE.sol",
  "compiler": {
    "name": "solc",
    "version": "0.4.18+commit.9cf6e910.Emscripten.clang"
  },
  "schemaVersion": "1.0.1",
  "updatedAt": "2017-12-21T22:00:05.556Z"
}