{
  "contractName": "utils",
  "abi": [
    {
      "constant": true,
      "inputs": [],
      "name": "presaleValue1",
      "outputs": [
        {
          "name": "",
          "type": "uint256"
        }
      ],
      "payable": false,
      "stateMutability": "view",
      "type": "function"
    },
    {
      "constant": true,
      "inputs": [],
      "name": "name",
      "outputs": [
        {
          "name": "",
          "type": "string"
        }
      ],
      "payable": false,
      "stateMutability": "view",
      "type": "function"
    },
    {
      "constant": false,
      "inputs": [
        {
          "name": "_spender",
          "type": "address"
        },
        {
          "name": "_value",
          "type": "uint256"
        }
      ],
      "name": "approve",
      "outputs": [
        {
          "name": "success",
          "type": "bool"
        }
      ],
      "payable": false,
      "stateMutability": "nonpayable",
      "type": "function"
    },
    {
      "constant": true,
      "inputs": [],
      "name": "totalSupply",
      "outputs": [
        {
          "name": "",
          "type": "uint256"
        }
      ],
      "payable": false,
      "stateMutability": "view",
      "type": "function"
    },
    {
      "constant": false,
      "inputs": [
        {
          "name": "_from",
          "type": "address"
        },
        {
          "name": "_to",
          "type": "address"
        },
        {
          "name": "_value",
          "type": "uint256"
        }
      ],
      "name": "transferFrom",
      "outputs": [
        {
          "name": "success",
          "type": "bool"
        }
      ],
      "payable": false,
      "stateMutability": "nonpayable",
      "type": "function"
    },
    {
      "constant": true,
      "inputs": [],
      "name": "decimals",
      "outputs": [
        {
          "name": "",
          "type": "uint8"
        }
      ],
      "payable": false,
      "stateMutability": "view",
      "type": "function"
    },
    {
      "constant": true,
      "inputs": [],
      "name": "icoValue",
      "outputs": [
        {
          "name": "",
          "type": "uint256"
        }
      ],
      "payable": false,
      "stateMutability": "view",
      "type": "function"
    },
    {
      "constant": true,
      "inputs": [
        {
          "name": "",
          "type": "address"
        },
        {
          "name": "",
          "type": "address"
        }
      ],
      "name": "allowed",
      "outputs": [
        {
          "name": "",
          "type": "uint256"
        }
      ],
      "payable": false,
      "stateMutability": "view",
      "type": "function"
    },
    {
      "constant": true,
      "inputs": [],
      "name": "presaleValue2",
      "outputs": [
        {
          "name": "",
          "type": "uint256"
        }
      ],
      "payable": false,
      "stateMutability": "view",
      "type": "function"
    },
    {
      "constant": true,
      "inputs": [
        {
          "name": "_owner",
          "type": "address"
        }
      ],
      "name": "balanceOf",
      "outputs": [
        {
          "name": "balance",
          "type": "uint256"
        }
      ],
      "payable": false,
      "stateMutability": "view",
      "type": "function"
    },
    {
      "constant": true,
      "inputs": [],
      "name": "mintedToken",
      "outputs": [
        {
          "name": "",
          "type": "uint256"
        }
      ],
      "payable": false,
      "stateMutability": "view",
      "type": "function"
    },
    {
      "constant": true,
      "inputs": [],
      "name": "buyPrice",
      "outputs": [
        {
          "name": "",
          "type": "uint256"
        }
      ],
      "payable": false,
      "stateMutability": "view",
      "type": "function"
    },
    {
      "constant": true,
      "inputs": [],
      "name": "owner",
      "outputs": [
        {
          "name": "",
          "type": "address"
        }
      ],
      "payable": false,
      "stateMutability": "view",
      "type": "function"
    },
    {
      "constant": true,
      "inputs": [],
      "name": "softCap",
      "outputs": [
        {
          "name": "",
          "type": "uint256"
        }
      ],
      "payable": false,
      "stateMutability": "view",
      "type": "function"
    },
    {
      "constant": true,
      "inputs": [],
      "name": "symbol",
      "outputs": [
        {
          "name": "",
          "type": "string"
        }
      ],
      "payable": false,
      "stateMutability": "view",
      "type": "function"
    },
    {
      "constant": false,
      "inputs": [
        {
          "name": "_to",
          "type": "address"
        },
        {
          "name": "_value",
          "type": "uint256"
        }
      ],
      "name": "transfer",
      "outputs": [
        {
          "name": "success",
          "type": "bool"
        }
      ],
      "payable": false,
      "stateMutability": "nonpayable",
      "type": "function"
    },
    {
      "constant": true,
      "inputs": [
        {
          "name": "_owner",
          "type": "address"
        },
        {
          "name": "_spender",
          "type": "address"
        }
      ],
      "name": "allowance",
      "outputs": [
        {
          "name": "remaining",
          "type": "uint256"
        }
      ],
      "payable": false,
      "stateMutability": "view",
      "type": "function"
    },
    {
      "constant": false,
      "inputs": [
        {
          "name": "newOwner",
          "type": "address"
        }
      ],
      "name": "transferOwnership",
      "outputs": [],
      "payable": false,
      "stateMutability": "nonpayable",
      "type": "function"
    },
    {
      "constant": true,
      "inputs": [],
      "name": "hardCap",
      "outputs": [
        {
          "name": "",
          "type": "uint256"
        }
      ],
      "payable": false,
      "stateMutability": "view",
      "type": "function"
    },
    {
      "anonymous": false,
      "inputs": [
        {
          "indexed": true,
          "name": "_owner",
          "type": "address"
        },
        {
          "indexed": true,
          "name": "_spender",
          "type": "address"
        },
        {
          "indexed": false,
          "name": "_value",
          "type": "uint256"
        }
      ],
      "name": "Approval",
      "type": "event"
    },
    {
      "anonymous": false,
      "inputs": [
        {
          "indexed": true,
          "name": "_from",
          "type": "address"
        },
        {
          "indexed": true,
          "name": "_to",
          "type": "address"
        },
        {
          "indexed": false,
          "name": "_value",
          "type": "uint256"
        }
      ],
      "name": "Transfer",
      "type": "event"
    }
  ],
  "bytecode": "0x60606040526008600260006101000a81548160ff021916908360ff160217905550731f829d3202c29789af7aa7ddd728337539974169600760006101000a81548173ffffffffffffffffffffffffffffffffffffffff021916908373ffffffffffffffffffffffffffffffffffffffff16021790555060006008556103e86009556000600b556000600c556000600d556000600e60006101000a81548160ff021916908360ff1602179055506000600e60016101000a81548160ff021916908360ff1602179055506611c37937e08000600f556000601060006101000a81548160ff0219169083151502179055506000601060016101000a81548160ff0219169083151502179055506000601060026101000a81548160ff021916908315150217905550600260009054906101000a900460ff1660ff16600a0a601555600260009054906101000a900460ff1660ff16600a0a6305f5e100026003819055506040805190810160405280600681526020017f72696d756c650000000000000000000000000000000000000000000000000000815250600090805190602001906101a992919061023c565b506040805190810160405280600381526020017f52696d0000000000000000000000000000000000000000000000000000000000815250600190805190602001906101f592919061023c565b5033600660006101000a81548173ffffffffffffffffffffffffffffffffffffffff021916908373ffffffffffffffffffffffffffffffffffffffff1602179055506102e1565b828054600181600116156101000203166002900490600052602060002090601f016020900481019282601f1061027d57805160ff19168380011785556102ab565b828001600101855582156102ab579182015b828111156102aa57825182559160200191906001019061028f565b5b5090506102b891906102bc565b5090565b6102de91905b808211156102da5760008160009055506001016102c2565b5090565b90565b610ea4806102f06000396000f300606060405260043610610107576000357c0100000000000000000000000000000000000000000000000000000000900463ffffffff1680630520445f1461010c57806306fdde0314610135578063095ea7b3146101c357806318160ddd1461021d57806323b872dd14610246578063313ce567146102bf5780635c51484c146102ee5780635c658165146103175780636b86ac851461038357806370a08231146103ac5780638542925a146103f95780638620410b146104225780638da5cb5b1461044b578063906a26e0146104a057806395d89b41146104c9578063a9059cbb14610557578063dd62ed3e146105b1578063f2fde38b1461061d578063fb86a40414610656575b600080fd5b341561011757600080fd5b61011f61067f565b6040518082815260200191505060405180910390f35b341561014057600080fd5b610148610685565b6040518080602001828103825283818151815260200191508051906020019080838360005b8381101561018857808201518184015260208101905061016d565b50505050905090810190601f1680156101b55780820380516001836020036101000a031916815260200191505b509250505060405180910390f35b34156101ce57600080fd5b610203600480803573ffffffffffffffffffffffffffffffffffffffff16906020019091908035906020019091905050610723565b604051808215151515815260200191505060405180910390f35b341561022857600080fd5b610230610815565b6040518082815260200191505060405180910390f35b341561025157600080fd5b6102a5600480803573ffffffffffffffffffffffffffffffffffffffff1690602001909190803573ffffffffffffffffffffffffffffffffffffffff1690602001909190803590602001909190505061081b565b604051808215151515815260200191505060405180910390f35b34156102ca57600080fd5b6102d2610a8b565b604051808260ff1660ff16815260200191505060405180910390f35b34156102f957600080fd5b610301610a9e565b6040518082815260200191505060405180910390f35b341561032257600080fd5b61036d600480803573ffffffffffffffffffffffffffffffffffffffff1690602001909190803573ffffffffffffffffffffffffffffffffffffffff16906020019091905050610aa4565b6040518082815260200191505060405180910390f35b341561038e57600080fd5b610396610ac9565b6040518082815260200191505060405180910390f35b34156103b757600080fd5b6103e3600480803573ffffffffffffffffffffffffffffffffffffffff16906020019091905050610acf565b6040518082815260200191505060405180910390f35b341561040457600080fd5b61040c610b18565b6040518082815260200191505060405180910390f35b341561042d57600080fd5b610435610b1e565b6040518082815260200191505060405180910390f35b341561045657600080fd5b61045e610b24565b604051808273ffffffffffffffffffffffffffffffffffffffff1673ffffffffffffffffffffffffffffffffffffffff16815260200191505060405180910390f35b34156104ab57600080fd5b6104b3610b4a565b6040518082815260200191505060405180910390f35b34156104d457600080fd5b6104dc610b50565b6040518080602001828103825283818151815260200191508051906020019080838360005b8381101561051c578082015181840152602081019050610501565b50505050905090810190601f1680156105495780820380516001836020036101000a031916815260200191505b509250505060405180910390f35b341561056257600080fd5b610597600480803573ffffffffffffffffffffffffffffffffffffffff16906020019091908035906020019091905050610bee565b604051808215151515815260200191505060405180910390f35b34156105bc57600080fd5b610607600480803573ffffffffffffffffffffffffffffffffffffffff1690602001909190803573ffffffffffffffffffffffffffffffffffffffff16906020019091905050610d4b565b6040518082815260200191505060405180910390f35b341561062857600080fd5b610654600480803573ffffffffffffffffffffffffffffffffffffffff16906020019091905050610dd2565b005b341561066157600080fd5b610669610e72565b6040518082815260200191505060405180910390f35b600b5481565b60008054600181600116156101000203166002900480601f01602080910402602001604051908101604052809291908181526020018280546001816001161561010002031660029004801561071b5780601f106106f05761010080835404028352916020019161071b565b820191906000526020600020905b8154815290600101906020018083116106fe57829003601f168201915b505050505081565b600081600560003373ffffffffffffffffffffffffffffffffffffffff1673ffffffffffffffffffffffffffffffffffffffff16815260200190815260200160002060008573ffffffffffffffffffffffffffffffffffffffff1673ffffffffffffffffffffffffffffffffffffffff168152602001908152602001600020819055508273ffffffffffffffffffffffffffffffffffffffff163373ffffffffffffffffffffffffffffffffffffffff167f8c5be1e5ebec7d5bd14f71427d1e84f3dd0314c0f7b2291e5b200ac8c7c3b925846040518082815260200191505060405180910390a36001905092915050565b60035481565b600081600460008673ffffffffffffffffffffffffffffffffffffffff1673ffffffffffffffffffffffffffffffffffffffff16815260200190815260200160002054101580156108e8575081600560008673ffffffffffffffffffffffffffffffffffffffff1673ffffffffffffffffffffffffffffffffffffffff16815260200190815260200160002060003373ffffffffffffffffffffffffffffffffffffffff1673ffffffffffffffffffffffffffffffffffffffff1681526020019081526020016000205410155b15610a7f5781600460008573ffffffffffffffffffffffffffffffffffffffff1673ffffffffffffffffffffffffffffffffffffffff1681526020019081526020016000206000828254019250508190555081600460008673ffffffffffffffffffffffffffffffffffffffff1673ffffffffffffffffffffffffffffffffffffffff1681526020019081526020016000206000828254039250508190555081600560008673ffffffffffffffffffffffffffffffffffffffff1673ffffffffffffffffffffffffffffffffffffffff16815260200190815260200160002060003373ffffffffffffffffffffffffffffffffffffffff1673ffffffffffffffffffffffffffffffffffffffff168152602001908152602001600020600082825403925050819055508273ffffffffffffffffffffffffffffffffffffffff168473ffffffffffffffffffffffffffffffffffffffff167fddf252ad1be2c89b69c2b068fc378daa952ba7f163c4a11628f55a4df523b3ef846040518082815260200191505060405180910390a360019050610a84565b600090505b9392505050565b600260009054906101000a900460ff1681565b600d5481565b6005602052816000526040600020602052806000526040600020600091509150505481565b600c5481565b6000600460008373ffffffffffffffffffffffffffffffffffffffff1673ffffffffffffffffffffffffffffffffffffffff168152602001908152602001600020549050919050565b60085481565b600f5481565b600660009054906101000a900473ffffffffffffffffffffffffffffffffffffffff1681565b60095481565b60018054600181600116156101000203166002900480601f016020809104026020016040519081016040528092919081815260200182805460018160011615610100020316600290048015610be65780601f10610bbb57610100808354040283529160200191610be6565b820191906000526020600020905b815481529060010190602001808311610bc957829003601f168201915b505050505081565b600081600460003373ffffffffffffffffffffffffffffffffffffffff1673ffffffffffffffffffffffffffffffffffffffff16815260200190815260200160002054101515610d405781600460003373ffffffffffffffffffffffffffffffffffffffff1673ffffffffffffffffffffffffffffffffffffffff1681526020019081526020016000206000828254039250508190555081600460008573ffffffffffffffffffffffffffffffffffffffff1673ffffffffffffffffffffffffffffffffffffffff168152602001908152602001600020600082825401925050819055508273ffffffffffffffffffffffffffffffffffffffff163373ffffffffffffffffffffffffffffffffffffffff167fddf252ad1be2c89b69c2b068fc378daa952ba7f163c4a11628f55a4df523b3ef846040518082815260200191505060405180910390a360019050610d45565b600090505b92915050565b6000600560008473ffffffffffffffffffffffffffffffffffffffff1673ffffffffffffffffffffffffffffffffffffffff16815260200190815260200160002060008373ffffffffffffffffffffffffffffffffffffffff1673ffffffffffffffffffffffffffffffffffffffff16815260200190815260200160002054905092915050565b600760009054906101000a900473ffffffffffffffffffffffffffffffffffffffff1673ffffffffffffffffffffffffffffffffffffffff163373ffffffffffffffffffffffffffffffffffffffff16141515610e2e57600080fd5b80600660006101000a81548173ffffffffffffffffffffffffffffffffffffffff021916908373ffffffffffffffffffffffffffffffffffffffff16021790555050565b600a54815600a165627a7a72305820bbe8a0b6c656eb1f31a0b3a7626c824d7831a41570c3372b987c925d3a2de5870029",
  "source": "pragma solidity ^ 0.4 .4;\n\nimport './TokenERC20.sol';\nimport './owned.sol';\n\ncontract utils is TokenERC20,owned {\n  uint256 public mintedToken = 0;\n  uint256 public softCap = 1000;\n  uint256 public hardCap;\n  uint256 public presaleValue1 = 0;\n  uint256 public presaleValue2 = 0;\n  uint256 public icoValue = 0;\n  uint8 flagPresale1 = 0;\n  uint8 flagPresale2 = 0;\n  uint256 public buyPrice = 5000000000000000; //1 Rim = 0.005ether\n  bool isPresale1 = false;\n  bool isPresale2 = false;\n  bool isIco = false;\n  uint256 internal eth;\n  uint256 _rim;\n  address[] internal userAddress;\n  mapping(address => uint256) internal receivedPresaleAmount;\n  uint256 _decimal = 10 ** uint256(decimals);\n\n  /**\n   *   rollback if softCap is reached\n   *   returns back user wei\n   *   takes given token\n   **/\n\n  function rollBackPresale(uint8 dis) internal {\n    uint256 userWei;\n    for (uint256 i = 0; i < userAddress.length; i++) {\n\n      userWei = receivedPresaleAmount[userAddress[0]];\n      if (userWei != 0) {\n        receivedPresaleAmount[userAddress[0]] = 0;\n        userAddress[0].transfer(userWei);\n        balanceOf[userAddress[0]] -= ((userWei / (buyPrice)) * dis) * _decimal;\n        balanceOf[owner] -= (((userWei / (buyPrice)) * dis) / 10) * _decimal;\n        mintedToken += ((((userWei / (buyPrice)) * dis) + (((userWei / (buyPrice)) * dis) / 10))) * _decimal;\n      }\n\n    }\n    userAddress.length = 0; //freeing up array\n\n  }\n\n  /*\n    this destroy all presale values\n    called once a presale is ended\n  */\n\n  function destroy() internal {\n    for (uint256 i = 0; i < userAddress.length; i++) {\n      receivedPresaleAmount[userAddress[0]] = 0;\n    }\n    userAddress.length = 0;\n  }\n\n  //function to mint coin\n  function mintToken(uint8 _sale) internal {\n    if (_sale == 1) {\n      mintedToken += 10000000 * 10 ** uint256(decimals);\n      totalSupply -= mintedToken;\n      hardCap = mintedToken; //total token in presale\n    } else if (_sale == 2) {\n      mintedToken += 30000000 * 10 ** uint256(decimals);\n      totalSupply -= mintedToken;\n      hardCap = mintedToken; //total token in ico\n    }\n  }\n\n\n  //move ether to owner account\n  function withdraw() internal {\n    eth = this.balance;\n    owner.transfer(eth);\n  }\n\n}\n",
  "sourcePath": "C:\\Users\\Armstrong\\Documents\\GitHub\\test\\contracts\\utils.sol",
  "compiler": {
    "name": "solc",
    "version": "0.4.18+commit.9cf6e910.Emscripten.clang"
  },
  "schemaVersion": "1.0.1",
  "updatedAt": "2017-12-21T21:40:58.473Z"
}